:100000000C9462000C948A000C948A000C948A0070
:100010000C948A000C948A000C948A000C948A0038
:100020000C948A000C948A000C948A000C94F104BD
:100030000C948A000C948A000C948A000C948A0018
:100040000C94A7040C948A000C9475040C944F042F
:100050000C948A000C948A000C948A000C948A00F8
:100060000C948A000C948A000000000024002700F1
:100070002A0000000000250028002B0000000008D6
:10008000000201000003040700000000000000005F
:1000900000000000230026002900040404040404D6
:1000A0000404020202020202030303030303010227
:1000B00004081020408001020408102001020408F6
:1000C0001020F20511241FBECFEFD8E0DEBFCDBF58
:1000D00011E0A0E0B1E0E2E0F5E102C005900D9290
:1000E000A23AB107D9F722E0A2EAB1E001C01D921D
:1000F000AF38B207E1F710E0C2E6D0E004C02197C4
:10010000FE010E94790AC136D107C9F70E947C0618
:100110000C947F0A0C9400008F929F92AF92BF9232
:10012000FF920F931F93CF93DF93F09074022BE015
:100130002F1508F44CC02091760208E512E0021B4E
:10014000110927FD1395000F111F000F111F20919A
:100150007502C8E8D0E0C21BD10927FDD395CC0FAA
:10016000DD1FCC0FDD1F4E010D2E000CAA08BB08B1
:100170009801012E000C440B550B281939094A0926
:100180005B09DC010E94030924EB30E040E050E011
:100190000E94D908820E931EA41EB51E8C169D06C1
:1001A0002CF0E801801691060CF4E4012297CC0FA4
:1001B000DD1F2FB7F8948F2D90E0FC01EE0FFF1F8D
:1001C000E80FF91FE15BFD4FD283C1832FBFDF91A1
:1001D000CF911F910F91FF90BF90AF909F908F9004
:1001E0000895AF92BF92CF92DF92EF92FF920F935A
:1001F0001F93CF93DF936C017B018B01040F151FBD
:10020000EB015E01AE18BF08C017D10759F0699124
:10021000D601ED91FC910190F081E02DC601099588
:10022000892B79F7C501DF91CF911F910F91FF9035
:10023000EF90DF90CF90BF90AF900895FC01538D69
:10024000448D252F30E0842F90E0821B930B5417B0
:1002500010F0CF96089501970895FC01918D828D3D
:10026000981761F0A28DAE0FBF2FB11D5D968C91D6
:10027000928D9F5F9F73928F90E008958FEF9FEF15
:100280000895FC01918D828D981731F0828DE80FD1
:10029000F11D858D90E008958FEF9FEF0895FC018B
:1002A000918D228D892F90E0805C9F4F821B910958
:1002B0008F739927089582EB91E00E944F0121E00E
:1002C000892B09F420E0822F089580E090E0892BAB
:1002D00029F00E945B0181110C9400000895FC013B
:1002E000A48DA80FB92FB11DA35ABF4F2C91848D97
:1002F00090E001968F739927848FA689B7892C93F4
:10030000A089B1898C91837080648C93938D848D46
:10031000981306C00288F389E02D80818F7D808349
:100320000895EF92FF920F931F93CF93DF93EC0109
:1003300081E0888F9B8D8C8D98131AC0E889F9898C
:10034000808185FF15C09FB7F894EE89FF8960838F
:10035000E889F98980818370806480839FBF81E010
:1003600090E0DF91CF911F910F91FF90EF90089552
:10037000F62E0B8D10E00F5F1F4F0F731127E02E2D
:100380008C8D8E110CC00FB607FCFACFE889F98965
:10039000808185FFF5CFCE010E946F01F1CFEB8DFB
:1003A000EC0FFD2FF11DE35AFF4FF0829FB7F89439
:1003B0000B8FEA89FB8980818062CFCFCF93DF9357
:1003C000EC01888D8823B9F0AA89BB89E889F9896D
:1003D0008C9185FD03C0808186FD0DC00FB607FCA2
:1003E000F7CF8C9185FFF2CF808185FFEDCFCE01D5
:1003F0000E946F01E9CFDF91CF910895833081F0A2
:1004000028F4813099F08230A9F008958730A9F05E
:100410008830C9F08430B1F4809180008F7D03C0B2
:10042000809180008F7780938000089584B58F77C6
:1004300084BD089584B58F7DFBCF8091B0008F7708
:100440008093B00008958091B0008F7DF9CF1F9305
:10045000CF93DF93282F30E0F901E458FF4F8491C8
:10046000F901E255FF4FD491F901E656FF4FC491CF
:10047000CC23A9F0162F81110E94FE01EC2FF0E091
:10048000EE0FFF1FEE58FF4FA591B4918FB7F89470
:10049000EC91111108C0D095DE23DC938FBFDF9162
:1004A000CF911F910895DE2BF8CFCF93DF9390E08B
:1004B000FC01E255FF4F249186569F4FFC01849129
:1004C0008823D1F090E0880F991FFC01E859FF4F75
:1004D000A591B491FC01EE58FF4FC591D4916111E3
:1004E0000EC09FB7F8948C91E22FE0958E238C93E9
:1004F0002881E223E8839FBFDF91CF9108958FB7D2
:10050000F894EC91E22BEC938FBFF6CF3FB7F894C1
:100510008091A8019091A901A091AA01B091AB018D
:1005200026B5A89B05C02F3F19F00196A11DB11D4E
:100530003FBFBA2FA92F982F8827BC01CD01620F8A
:10054000711D811D911D42E0660F771F881F991F45
:100550004A95D1F708958F929F92AF92BF92CF9212
:10056000DF92EF92FF924B015C010E9486026B01C9
:100570007C010E9486026C197D098E099F09683EE4
:10058000734081059105A8F321E0821A9108A10822
:10059000B10888EEC80E83E0D81EE11CF11C81145E
:1005A0009104A104B10429F7FF90EF90DF90CF9060
:1005B000BF90AF909F908F900895089590E080E055
:1005C0000895CF93DF93EC0160E08E810E942702B3
:1005D00061E08E810E94270260E08E810E942702E6
:1005E0008BE891E00197F1F7DF91CF910895CF92D9
:1005F000DF92EF92FF920F931F93CF93DF936C01E3
:100600007C0187E0E80EF11CD0E0C0E0062F10E08E
:10061000B8010C2E02C0759567950A94E2F76170D7
:10062000F70181917F010E9427022196C430D105F4
:1006300079F7C601DF91CF911F910F91FF90EF9055
:10064000DF90CF900C94E102CF92DF92EF92FF9275
:100650000F931F93CF93DF93EC01F62E642F8C81C1
:100660000E9427028D818F3F19F060E00E942702CF
:100670000F2D10E08F8584FF25C06E0187E0C80E26
:10068000D11CF12CE12CB8010E2C02C07595679598
:100690000A94E2F76170F60181916F010E942702CE
:1006A000FFEFEF1AFF0A88E0E816F10461F7CE01C8
:1006B000DF91CF911F910F91FF90EF90DF90CF903E
:1006C0000C94E102B80184E0759567958A95E1F78D
:1006D000CE010E94F7026F2DCE01DF91CF911F91C5
:1006E0000F91FF90EF90DF90CF900C94F70240E0D5
:1006F000682F87E792E00C94240381E00E9477033F
:100700008BE39FE10197F1F70895CF93DF93823058
:1007100029F49091860298609093860280938A02D1
:1007200010928B0280E480938C0280E180938D0292
:1007300080E580938E0261E080917B020E945502E9
:1007400080917C028F3F19F061E00E94550261E0C8
:1007500080917D020E945502C7E7D2E09E01275793
:1007600032408091860284FD0BC084E090E02196A7
:100770002817390744F461E08E810E945502EECFBC
:1007800088E090E0F4CF8BE39DE00197F1F760E023
:1007900080917B020E94270260E080917D020E948E
:1007A000270280917C028F3F19F060E00E942702AF
:1007B0008091860284FD34C063E087E792E00E9466
:1007C000F702CBE4D6E4CE010197F1F763E087E7C7
:1007D00092E00E94F7022197F1F763E087E792E049
:1007E0000E94F70283E592E00197F1F762E087E764
:1007F00092E00E94F7028091860280620E94770355
:1008000084E0809387028CE00E9477030E947D033E
:1008100082E08093880286E0DF91CF910C94770389
:1008200080620E9477038BE496E40197F1F7809150
:10083000860280620E94770383E592E00197F1F7D8
:100840008091860280620E947703D5CF90918A02C0
:10085000691710F06FEF690FE62FF0E0E958FD4FD0
:100860009489890F80680C94770341E00E942403E7
:1008700081E090E00895FB0101900020E9F73197B5
:10088000AF01461B570BDC01ED91FC910280F38117
:10089000E02D0994BC0187E792E00C943B041F9281
:1008A0000F920FB60F9211242F933F934F935F93A4
:1008B0006F937F938F939F93AF93BF93EF93FF9328
:1008C00082EB91E00E946F01FF91EF91BF91AF9198
:1008D0009F918F917F916F915F914F913F912F9158
:1008E0000F900FBE0F901F9018951F920F920FB68A
:1008F0000F9211242F938F939F93EF93FF93E09187
:10090000C201F091C3018081E091C801F091C90159
:1009100082FD1BC090818091CB018F5F8F732091EE
:10092000CC01821741F0E091CB01F0E0EE54FE4F94
:10093000958F8093CB01FF91EF919F918F912F9194
:100940000F900FBE0F901F9018958081F4CF1F92CB
:100950000F920FB60F9211242F933F938F939F9373
:10096000AF93BF938091A4019091A501A091A6019E
:10097000B091A7013091A30123E0230F2D3758F543
:100980000196A11DB11D2093A3018093A401909312
:10099000A501A093A601B093A7018091A801909111
:1009A000A901A091AA01B091AB010196A11DB11DB1
:1009B0008093A8019093A901A093AA01B093AB01E1
:1009C000BF91AF919F918F913F912F910F900FBE4B
:1009D0000F901F90189526E8230F0296A11DB11DB8
:1009E000D2CF1F920F920FB60F9211242F933F93E5
:1009F0004F935F936F937F938F939F93AF93BF9327
:100A0000CF93DF93EF93FF938091A201C091730284
:100A1000D0E087FF24C0109285001092840080915E
:100A2000A2018F5F8093A2018091A201082E000C89
:100A3000990B8C179D0724F48091A2018C30C4F18E
:100A40008091840090918500049680349C4908F43C
:100A50007AC08091840090918500049676C0809140
:100A6000A201082E000C990B8C179D07C4F6E0918B
:100A7000A2018E2FEE0F990BFC01EE0FFF1FE80F66
:100A8000F91FE15BFD4F808186FFC9CFE091A20194
:100A90008E2FEE0F990BFC01EE0FFF1FE80FF91FD1
:100AA000E15BFD4F808160E08F730E942702B7CF2A
:100AB0002091840030918500E091A2018E2FEE0FED
:100AC000990BFC01EE0FFF1FE80FF91FE15BFD4FD3
:100AD00081819281820F931F909389008093880077
:100AE000E091A2018E2FEE0F990BFC01EE0FFF1F7C
:100AF000E80FF91FE15BFD4F808186FF11C0E09197
:100B0000A2018E2FEE0F990BFC01EE0FFF1FE80FD5
:100B1000F91FE15BFD4F808161E08F730E94270226
:100B2000FF91EF91DF91CF91BF91AF919F918F9105
:100B30007F916F915F914F913F912F910F900FBED9
:100B40000F901F90189580E49CE990938900809302
:100B500088008FEF8093A201E3CFCF92DF92EF92D4
:100B6000FF920F931F93E82FF92F05C00150110931
:100B70002109310961F1908196239417B9F305C0D9
:100B8000015011092109310911F190819623941323
:100B9000F7CFC12CD12CE12CF12C0AC08FEFC81A51
:100BA000D80AE80AF80A0C151D052E053F0579F04C
:100BB00080818623841791F36C2D7D2D8E2D9F2DA2
:100BC0001F910F91FF90EF90DF90CF90089560E01C
:100BD00070E080E090E01F910F91FF90EF90DF9028
:100BE000CF900895CF931092B5011092B40188EE82
:100BF00093E0A0E0B0E08093B6019093B701A0939A
:100C0000B801B093B90184E091E09093B30180936F
:100C1000B20185EC90E09093BF018093BE0184EC1B
:100C200090E09093C1018093C00180EC90E090939C
:100C3000C3018093C20181EC90E09093C501809341
:100C4000C40182EC90E09093C7018093C60186ECCA
:100C500090E09093C9018093C8011092CB0110924B
:100C6000CC011092CD011092CE0110927A02109216
:100C7000790286E191E090937802809377028DE08B
:100C800080937B02CFEFC0937C028CE080937D0247
:100C90008BE080937E028AE080937F0289E08093DC
:100CA000800288E080938102109282021092830277
:100CB00010928402109285021092860281E00E94B6
:100CC0008503809173028C30A0F491E0980F90938B
:100CD00073028093740290E0FC01EE0FFF1FE80F97
:100CE000F91FE15BFD4F88EB9BE092838183CF91FD
:100CF0000895C0937402FBCFCF93DF93CDB7DEB7D7
:100D0000A1970FB6F894DEBF0FBECDBF789484B51F
:100D1000826084BD84B5816084BD85B5826085BDF7
:100D200085B5816085BD80916E00816080936E0085
:100D30001092810080918100826080938100809177
:100D40008100816080938100809180008160809328
:100D500080008091B10084608093B1008091B000E8
:100D600081608093B00080917A00846080937A00E3
:100D700080917A00826080937A0080917A0081600D
:100D800080937A0080917A00806880937A00109234
:100D9000C10082E00E94850360E080E00E9426049A
:100DA0008EE191E00E944A0461E080E00E94260406
:100DB0008EE291E00E944A04809174028C3008F027
:100DC00051C061E084E00E94550280917402282F96
:100DD00030E0F901EE0FFF1FE20FF31FE15BFD4F63
:100DE0009081907C946090831092750210927602AC
:100DF0002CE0622F0E946D0A829FB001112430E026
:100E000020E0AB01420F531FFA01EE0FFF1FE40F6A
:100E1000F51FE15BFD4F908196FD16C02F5F3F4FA0
:100E20002C30310571F781110FC01092800082E0E3
:100E3000809381001092850010928400B19A809175
:100E40006F00826080936F00E09174028E2F90E0BB
:100E5000FC01EE0FFF1FE80FF91FE15BFD4F8081E2
:100E60008064808361E087E00E94550260E086E054
:100E70000E94550260E083E00E94550261E085E037
:100E80000E94550261E082E00E945502E091C20199
:100E9000F091C30182E08083E091BE01F091BF0137
:100EA0001082E091C001F091C1018FEC808310921B
:100EB000CA01E091C601F091C70186E08083E0910C
:100EC000C401F091C501808180618083E091C401FB
:100ED000F091C501808188608083E091C401F09128
:100EE000C501808180688083E091C401F091C501D3
:100EF00080818F7D80836FE0862E912C7AE0C72ED3
:100F0000D12CE12CF12C22242394312C50E0A52E5D
:100F100050E0B52E60E087E00E942702C4010197EF
:100F2000F1F761E087E00E94270283E290E00197F9
:100F3000F1F760E087E00E942702EFE7F0E084919C
:100F4000E1EBF0E07490EDE9F0E06490662009F4E4
:100F5000F7C081110E94FE01E62DF0E0EE0FFF1FA9
:100F6000E057FF4FA591B4918C91782291E080E0F9
:100F700009F490E09093B0018093B101E4EBF0E0CC
:100F80006491E0EAF0E08491E82FF0E0EE0FFF1FBB
:100F9000E057FF4F8591949100E412E42FE030E098
:100FA000462F0E94AD05611571058105910529F057
:100FB0006F5F7F4F8F4F9F4F9F7095958795779568
:100FC00067950E94740922E533EB47E05DE30E94D8
:100FD000D8090E943C097093AF016093AE012B01C8
:100FE000770F6608770877FEAEC06DE282EB91E07E
:100FF0000E94910122273327A901241935094609A6
:10100000570919A2CE0181963C01CA01B901A70175
:1010100096010E940B09605DF30162933F01211567
:1010200031054105510589F76114710429F0B301B7
:1010300082EB91E00E943B046FE371E082EB91E070
:101040000E943B048091AE019091AF0102970D97F1
:1010500008F08FC00E947D0360E081E00E942604BA
:1010600082E491E00E944A0461E080E00E9426044C
:1010700081E591E00E944A0461E085E00E94270238
:1010800061E082E00E9427023092AD012092AC0123
:1010900068EE73E080E090E00E94AB020E947D0366
:1010A00082E691E00E944A048091AC019091AD01EA
:1010B0008130910509F066C08091B0019091B10135
:1010C000892B91F50E947D0360E081E00E94260457
:1010D00083E791E00E944A0461E081E00E942604D7
:1010E00081E891E00E944A048AE590E00E948C0029
:1010F00060E177E280E090E00E94AB0290E080E067
:101100000E948C000E947D038EE191E00E944A04BF
:1011100061E080E00E9426048EE291E00E944A0491
:101120001092AD011092AC01A114B10409F4F2CEF9
:101130000E945B01882309F4E9CE0E940000E6CEFC
:1011400090E080E017CFA301920119A2CE01819611
:101150003C01CA01B901A70196010E940B09605D1B
:10116000F30162933F01211531054105510589F7CE
:101170005BCF60E085E00E94270260E082E00E9491
:10118000270292CF892B81F68091B0019091B10115
:10119000892B51F60E947D038EE191E00E944A0462
:1011A00061E080E00E94260481E991E00E944A0407
:1011B000BBCF052E97FB1EF400940E94F00857FD4C
:1011C00007D00E940B0907FC03D04EF40C94F008E2
:1011D00050954095309521953F4F4F4F5F4F089563
:1011E00090958095709561957F4F8F4F9F4F089593
:1011F0000E942D09A59F900DB49F900DA49F800D76
:10120000911D11240895B7FF0C94F8080E94F80866
:10121000821B930B0895A1E21A2EAA1BBB1BFD0192
:101220000DC0AA1FBB1FEE1FFF1FA217B307E407C5
:10123000F50720F0A21BB30BE40BF50B661F771F1D
:10124000881F991F1A9469F76095709580959095FD
:101250009B01AC01BD01CF010895A29FB001B39FD6
:10126000C001A39F700D811D1124911DB29F700DAF
:10127000811D1124911D08950E9443096894B111A4
:101280000C94D20908950E94B70988F09F5798F0EE
:10129000B92F9927B751B0F0E1F0660F771F881F7B
:1012A000991F1AF0BA95C9F714C0B13091F00E9495
:1012B000D109B1E008950C94D109672F782F8827C0
:1012C000B85F39F0B93FCCF3869577956795B395BC
:1012D000D9F73EF490958095709561957F4F8F4F2B
:1012E0009F4F0895E89409C097FB3EF49095809530
:1012F000709561957F4F8F4F9F4F9923A9F0F92FDC
:1013000096E9BB279395F695879577956795B79559
:10131000F111F8CFFAF4BB0F11F460FF1BC06F5F3F
:101320007F4F8F4F9F4F16C0882311F096E911C051
:10133000772321F09EE8872F762F05C0662371F072
:1013400096E8862F70E060E02AF09A95660F771F86
:10135000881FDAF7880F9695879597F9089557FDB6
:101360009058440F551F59F05F3F71F04795880F13
:1013700097FB991F61F09F3F79F0879508951216AA
:1013800013061406551FF2CF4695F1DF08C0161656
:1013900017061806991FF1CF869571056105089407
:1013A0000895E894BB2766277727CB0197F908951E
:1013B0000E94EB090C945C0A0E944E0A38F00E94CD
:1013C000550A20F0952311F00C94450A0C944B0A11
:1013D00011240C94D2090E94AF0970F3959FC1F3B8
:1013E000950F50E0551F629FF001729FBB27F00DD3
:1013F000B11D639FAA27F00DB11DAA1F649F662728
:10140000B00DA11D661F829F2227B00DA11D621F76
:10141000739FB00DA11D621F839FA00D611D221F30
:10142000749F3327A00D611D231F849F600D211D14
:10143000822F762F6A2F11249F5750409AF0F1F097
:1014400088234AF0EE0FFF1FBB1F661F771F881F00
:1014500091505040A9F79E3F510580F00C94450AE9
:101460000C94D2095F3FE4F3983ED4F386957795C8
:101470006795B795F795E7959F5FC1F7FE2B880FA6
:10148000911D9695879597F9089597F99F6780E83C
:1014900070E060E008959FEF80EC089500240A94C6
:1014A0001616170618060906089500240A9412163F
:1014B0001306140605060895092E0394000C11F472
:1014C000882352F0BB0F40F4BF2B11F460FF04C01F
:1014D0006F5F7F4F8F4F9F4F0895991B79E004C036
:1014E000991F961708F0961B881F7A95C9F7809563
:1014F0000895EE0FFF1F0590F491E02D0994F894E4
:02150000FFCF1B
:10150200000000009101F1001E01DE014F012D01DA
:101512004101000000003504F100DE02DD025761E6
:10152200736820796F75722068616E6473006265FA
:10153200666F726520796F7520656E746572000D35
:101542000A0048616E64732064657465637465643F
:1015520000576173682068616E6473202D203230F9
:101562007300596F75206172652073616665206E24
:101572006F7700596F75206D617920676F20696EF2
:10158200003130207365636F6E6473206C6566741E
:1015920000746F206772616E742061636365737398
:0215A200000047
:00000001FF
